{
  "_format": "hh-sol-artifact-1",
  "contractName": "SimpleSave",
  "sourceName": "contracts/SimpleSave.sol",
  "abi": [
    {
      "inputs": [],
      "stateMutability": "nonpayable",
      "type": "constructor"
    },
    {
      "anonymous": false,
      "inputs": [
        {
          "indexed": true,
          "internalType": "string",
          "name": "firstName",
          "type": "string"
        },
        {
          "indexed": true,
          "internalType": "string",
          "name": "lastName",
          "type": "string"
        },
        {
          "indexed": true,
          "internalType": "string",
          "name": "birthCity",
          "type": "string"
        },
        {
          "indexed": false,
          "internalType": "string",
          "name": "firstNameStr",
          "type": "string"
        },
        {
          "indexed": false,
          "internalType": "string",
          "name": "lastNameStr",
          "type": "string"
        },
        {
          "indexed": false,
          "internalType": "string",
          "name": "birthCityStr",
          "type": "string"
        },
        {
          "indexed": false,
          "internalType": "string",
          "name": "birthCountry",
          "type": "string"
        },
        {
          "indexed": false,
          "internalType": "string",
          "name": "birthDate",
          "type": "string"
        },
        {
          "indexed": false,
          "internalType": "string",
          "name": "deathDate",
          "type": "string"
        },
        {
          "indexed": false,
          "internalType": "string",
          "name": "imageUri",
          "type": "string"
        },
        {
          "indexed": false,
          "internalType": "string",
          "name": "notes",
          "type": "string"
        }
      ],
      "name": "ItemEvent",
      "type": "event"
    },
    {
      "anonymous": false,
      "inputs": [
        {
          "indexed": true,
          "internalType": "address",
          "name": "previousOwner",
          "type": "address"
        },
        {
          "indexed": true,
          "internalType": "address",
          "name": "newOwner",
          "type": "address"
        }
      ],
      "name": "OwnershipTransferred",
      "type": "event"
    },
    {
      "anonymous": false,
      "inputs": [
        {
          "indexed": true,
          "internalType": "address",
          "name": "to",
          "type": "address"
        },
        {
          "indexed": false,
          "internalType": "uint256",
          "name": "value",
          "type": "uint256"
        }
      ],
      "name": "TransferEvent",
      "type": "event"
    },
    {
      "inputs": [
        {
          "internalType": "string",
          "name": "_firstName",
          "type": "string"
        },
        {
          "internalType": "string",
          "name": "_lastName",
          "type": "string"
        },
        {
          "internalType": "string",
          "name": "_birthCity",
          "type": "string"
        },
        {
          "internalType": "string",
          "name": "_birthCountry",
          "type": "string"
        },
        {
          "internalType": "string",
          "name": "_birthDate",
          "type": "string"
        },
        {
          "internalType": "string",
          "name": "_deathDate",
          "type": "string"
        },
        {
          "internalType": "string",
          "name": "_imageUri",
          "type": "string"
        },
        {
          "internalType": "string",
          "name": "_notes",
          "type": "string"
        }
      ],
      "name": "createItem",
      "outputs": [],
      "stateMutability": "payable",
      "type": "function"
    },
    {
      "inputs": [],
      "name": "fee",
      "outputs": [
        {
          "internalType": "uint256",
          "name": "",
          "type": "uint256"
        }
      ],
      "stateMutability": "view",
      "type": "function"
    },
    {
      "inputs": [
        {
          "internalType": "address",
          "name": "_itemOwner",
          "type": "address"
        }
      ],
      "name": "getAddressItemCount",
      "outputs": [
        {
          "internalType": "uint256",
          "name": "",
          "type": "uint256"
        }
      ],
      "stateMutability": "view",
      "type": "function"
    },
    {
      "inputs": [],
      "name": "getBalance",
      "outputs": [
        {
          "internalType": "uint256",
          "name": "",
          "type": "uint256"
        }
      ],
      "stateMutability": "view",
      "type": "function"
    },
    {
      "inputs": [
        {
          "internalType": "address",
          "name": "",
          "type": "address"
        },
        {
          "internalType": "uint256",
          "name": "",
          "type": "uint256"
        }
      ],
      "name": "items",
      "outputs": [
        {
          "internalType": "string",
          "name": "firstName",
          "type": "string"
        },
        {
          "internalType": "string",
          "name": "lastName",
          "type": "string"
        },
        {
          "internalType": "string",
          "name": "birthCity",
          "type": "string"
        },
        {
          "internalType": "string",
          "name": "birthCountry",
          "type": "string"
        },
        {
          "internalType": "string",
          "name": "birthDate",
          "type": "string"
        },
        {
          "internalType": "string",
          "name": "deathDate",
          "type": "string"
        },
        {
          "internalType": "string",
          "name": "imageUri",
          "type": "string"
        },
        {
          "internalType": "string",
          "name": "notes",
          "type": "string"
        }
      ],
      "stateMutability": "view",
      "type": "function"
    },
    {
      "inputs": [],
      "name": "owner",
      "outputs": [
        {
          "internalType": "address",
          "name": "",
          "type": "address"
        }
      ],
      "stateMutability": "view",
      "type": "function"
    },
    {
      "inputs": [],
      "name": "renounceOwnership",
      "outputs": [],
      "stateMutability": "nonpayable",
      "type": "function"
    },
    {
      "inputs": [
        {
          "internalType": "uint256",
          "name": "newFee",
          "type": "uint256"
        }
      ],
      "name": "setFee",
      "outputs": [
        {
          "internalType": "bool",
          "name": "",
          "type": "bool"
        }
      ],
      "stateMutability": "nonpayable",
      "type": "function"
    },
    {
      "inputs": [
        {
          "internalType": "address",
          "name": "_to",
          "type": "address"
        },
        {
          "internalType": "uint256",
          "name": "_amount",
          "type": "uint256"
        }
      ],
      "name": "transfer",
      "outputs": [],
      "stateMutability": "nonpayable",
      "type": "function"
    },
    {
      "inputs": [
        {
          "internalType": "address",
          "name": "newOwner",
          "type": "address"
        }
      ],
      "name": "transferOwnership",
      "outputs": [],
      "stateMutability": "nonpayable",
      "type": "function"
    }
  ],
  "bytecode": "0x6080604052662386f26fc1000060015534801561001b57600080fd5b5061003861002d61003d60201b60201c565b61004560201b60201c565b610109565b600033905090565b60008060009054906101000a900473ffffffffffffffffffffffffffffffffffffffff169050816000806101000a81548173ffffffffffffffffffffffffffffffffffffffff021916908373ffffffffffffffffffffffffffffffffffffffff1602179055508173ffffffffffffffffffffffffffffffffffffffff168173ffffffffffffffffffffffffffffffffffffffff167f8be0079c531659141344cd1fd0a4f28419497f9722a3daafe3b4186f6b6457e060405160405180910390a35050565b61188d806101186000396000f3fe6080604052600436106100915760003560e01c80638da5cb5b116100595780638da5cb5b14610196578063a9059cbb146101c1578063ac221774146101ea578063ddca3f4314610206578063f2fde38b1461023157610091565b806312065fe01461009657806334ce2ff8146100c15780635c80a435146100fe57806369fe0e2d14610142578063715018a61461017f575b600080fd5b3480156100a257600080fd5b506100ab61025a565b6040516100b89190610d20565b60405180910390f35b3480156100cd57600080fd5b506100e860048036038101906100e39190610dad565b61026a565b6040516100f59190610d20565b60405180910390f35b34801561010a57600080fd5b5061012560048036038101906101209190610e06565b6102b6565b604051610139989796959493929190610ed6565b60405180910390f35b34801561014e57600080fd5b5061016960048036038101906101649190610f8c565b61075b565b6040516101769190610fd4565b60405180910390f35b34801561018b57600080fd5b50610194610775565b005b3480156101a257600080fd5b506101ab610789565b6040516101b89190610ffe565b60405180910390f35b3480156101cd57600080fd5b506101e860048036038101906101e39190610e06565b6107b2565b005b61020460048036038101906101ff919061114e565b610905565b005b34801561021257600080fd5b5061021b610b34565b6040516102289190610d20565b60405180910390f35b34801561023d57600080fd5b5061025860048036038101906102539190610dad565b610b3a565b005b6000610264610bbd565b47905090565b6000600260008373ffffffffffffffffffffffffffffffffffffffff1673ffffffffffffffffffffffffffffffffffffffff168152602001908152602001600020805490509050919050565b600260205281600052604060002081815481106102d257600080fd5b9060005260206000209060080201600091509150508060000180546102f690611313565b80601f016020809104026020016040519081016040528092919081815260200182805461032290611313565b801561036f5780601f106103445761010080835404028352916020019161036f565b820191906000526020600020905b81548152906001019060200180831161035257829003601f168201915b50505050509080600101805461038490611313565b80601f01602080910402602001604051908101604052809291908181526020018280546103b090611313565b80156103fd5780601f106103d2576101008083540402835291602001916103fd565b820191906000526020600020905b8154815290600101906020018083116103e057829003601f168201915b50505050509080600201805461041290611313565b80601f016020809104026020016040519081016040528092919081815260200182805461043e90611313565b801561048b5780601f106104605761010080835404028352916020019161048b565b820191906000526020600020905b81548152906001019060200180831161046e57829003601f168201915b5050505050908060030180546104a090611313565b80601f01602080910402602001604051908101604052809291908181526020018280546104cc90611313565b80156105195780601f106104ee57610100808354040283529160200191610519565b820191906000526020600020905b8154815290600101906020018083116104fc57829003601f168201915b50505050509080600401805461052e90611313565b80601f016020809104026020016040519081016040528092919081815260200182805461055a90611313565b80156105a75780601f1061057c576101008083540402835291602001916105a7565b820191906000526020600020905b81548152906001019060200180831161058a57829003601f168201915b5050505050908060050180546105bc90611313565b80601f01602080910402602001604051908101604052809291908181526020018280546105e890611313565b80156106355780601f1061060a57610100808354040283529160200191610635565b820191906000526020600020905b81548152906001019060200180831161061857829003601f168201915b50505050509080600601805461064a90611313565b80601f016020809104026020016040519081016040528092919081815260200182805461067690611313565b80156106c35780601f10610698576101008083540402835291602001916106c3565b820191906000526020600020905b8154815290600101906020018083116106a657829003601f168201915b5050505050908060070180546106d890611313565b80601f016020809104026020016040519081016040528092919081815260200182805461070490611313565b80156107515780601f1061072657610100808354040283529160200191610751565b820191906000526020600020905b81548152906001019060200180831161073457829003601f168201915b5050505050905088565b6000610765610bbd565b8160018190555060019050919050565b61077d610bbd565b6107876000610c3b565b565b60008060009054906101000a900473ffffffffffffffffffffffffffffffffffffffff16905090565b6107ba610bbd565b600073ffffffffffffffffffffffffffffffffffffffff168273ffffffffffffffffffffffffffffffffffffffff1603610829576040517f08c379a000000000000000000000000000000000000000000000000000000000815260040161082090611390565b60405180910390fd5b8047101561086c576040517f08c379a0000000000000000000000000000000000000000000000000000000008152600401610863906113fc565b60405180910390fd5b8173ffffffffffffffffffffffffffffffffffffffff166108fc829081150290604051600060405180830381858888f193505050501580156108b2573d6000803e3d6000fd5b508173ffffffffffffffffffffffffffffffffffffffff167fb98a26c1d0427d0e3492e749861c7795bed8f6e7599a65143b5903942e611bb0826040516108f99190610d20565b60405180910390a25050565b6001543414610949576040517f08c379a000000000000000000000000000000000000000000000000000000000815260040161094090611468565b60405180910390fd5b60006040518061010001604052808a8152602001898152602001888152602001878152602001868152602001858152602001848152602001838152509050600260003373ffffffffffffffffffffffffffffffffffffffff1673ffffffffffffffffffffffffffffffffffffffff1681526020019081526020016000208190806001815401808255809150506001900390600052602060002090600802016000909190919091506000820151816000019081610a059190611634565b506020820151816001019081610a1b9190611634565b506040820151816002019081610a319190611634565b506060820151816003019081610a479190611634565b506080820151816004019081610a5d9190611634565b5060a0820151816005019081610a739190611634565b5060c0820151816006019081610a899190611634565b5060e0820151816007019081610a9f9190611634565b50505086604051610ab09190611742565b604051809103902088604051610ac69190611742565b60405180910390208a604051610adc9190611742565b60405180910390207f882bedd918cdf3ef10f7296698cb1f023b704db835d4ce68894aae2604032d938c8c8c8c8c8c8c8c604051610b21989796959493929190610ed6565b60405180910390a4505050505050505050565b60015481565b610b42610bbd565b600073ffffffffffffffffffffffffffffffffffffffff168173ffffffffffffffffffffffffffffffffffffffff1603610bb1576040517f08c379a0000000000000000000000000000000000000000000000000000000008152600401610ba8906117cb565b60405180910390fd5b610bba81610c3b565b50565b610bc5610cff565b73ffffffffffffffffffffffffffffffffffffffff16610be3610789565b73ffffffffffffffffffffffffffffffffffffffff1614610c39576040517f08c379a0000000000000000000000000000000000000000000000000000000008152600401610c3090611837565b60405180910390fd5b565b60008060009054906101000a900473ffffffffffffffffffffffffffffffffffffffff169050816000806101000a81548173ffffffffffffffffffffffffffffffffffffffff021916908373ffffffffffffffffffffffffffffffffffffffff1602179055508173ffffffffffffffffffffffffffffffffffffffff168173ffffffffffffffffffffffffffffffffffffffff167f8be0079c531659141344cd1fd0a4f28419497f9722a3daafe3b4186f6b6457e060405160405180910390a35050565b600033905090565b6000819050919050565b610d1a81610d07565b82525050565b6000602082019050610d356000830184610d11565b92915050565b6000604051905090565b600080fd5b600080fd5b600073ffffffffffffffffffffffffffffffffffffffff82169050919050565b6000610d7a82610d4f565b9050919050565b610d8a81610d6f565b8114610d9557600080fd5b50565b600081359050610da781610d81565b92915050565b600060208284031215610dc357610dc2610d45565b5b6000610dd184828501610d98565b91505092915050565b610de381610d07565b8114610dee57600080fd5b50565b600081359050610e0081610dda565b92915050565b60008060408385031215610e1d57610e1c610d45565b5b6000610e2b85828601610d98565b9250506020610e3c85828601610df1565b9150509250929050565b600081519050919050565b600082825260208201905092915050565b60005b83811015610e80578082015181840152602081019050610e65565b60008484015250505050565b6000601f19601f8301169050919050565b6000610ea882610e46565b610eb28185610e51565b9350610ec2818560208601610e62565b610ecb81610e8c565b840191505092915050565b6000610100820190508181036000830152610ef1818b610e9d565b90508181036020830152610f05818a610e9d565b90508181036040830152610f198189610e9d565b90508181036060830152610f2d8188610e9d565b90508181036080830152610f418187610e9d565b905081810360a0830152610f558186610e9d565b905081810360c0830152610f698185610e9d565b905081810360e0830152610f7d8184610e9d565b90509998505050505050505050565b600060208284031215610fa257610fa1610d45565b5b6000610fb084828501610df1565b91505092915050565b60008115159050919050565b610fce81610fb9565b82525050565b6000602082019050610fe96000830184610fc5565b92915050565b610ff881610d6f565b82525050565b60006020820190506110136000830184610fef565b92915050565b600080fd5b600080fd5b7f4e487b7100000000000000000000000000000000000000000000000000000000600052604160045260246000fd5b61105b82610e8c565b810181811067ffffffffffffffff8211171561107a57611079611023565b5b80604052505050565b600061108d610d3b565b90506110998282611052565b919050565b600067ffffffffffffffff8211156110b9576110b8611023565b5b6110c282610e8c565b9050602081019050919050565b82818337600083830152505050565b60006110f16110ec8461109e565b611083565b90508281526020810184848401111561110d5761110c61101e565b5b6111188482856110cf565b509392505050565b600082601f83011261113557611134611019565b5b81356111458482602086016110de565b91505092915050565b600080600080600080600080610100898b03121561116f5761116e610d45565b5b600089013567ffffffffffffffff81111561118d5761118c610d4a565b5b6111998b828c01611120565b985050602089013567ffffffffffffffff8111156111ba576111b9610d4a565b5b6111c68b828c01611120565b975050604089013567ffffffffffffffff8111156111e7576111e6610d4a565b5b6111f38b828c01611120565b965050606089013567ffffffffffffffff81111561121457611213610d4a565b5b6112208b828c01611120565b955050608089013567ffffffffffffffff81111561124157611240610d4a565b5b61124d8b828c01611120565b94505060a089013567ffffffffffffffff81111561126e5761126d610d4a565b5b61127a8b828c01611120565b93505060c089013567ffffffffffffffff81111561129b5761129a610d4a565b5b6112a78b828c01611120565b92505060e089013567ffffffffffffffff8111156112c8576112c7610d4a565b5b6112d48b828c01611120565b9150509295985092959890939650565b7f4e487b7100000000000000000000000000000000000000000000000000000000600052602260045260246000fd5b6000600282049050600182168061132b57607f821691505b60208210810361133e5761133d6112e4565b5b50919050565b7f7472616e7366657220746f20746865207a65726f206164647265737300000000600082015250565b600061137a601c83610e51565b915061138582611344565b602082019050919050565b600060208201905081810360008301526113a98161136d565b9050919050565b7f7472616e7366657220616d6f756e7420657863656564732062616c616e636500600082015250565b60006113e6601f83610e51565b91506113f1826113b0565b602082019050919050565b60006020820190508181036000830152611415816113d9565b9050919050565b7f76616c75652073686f756c6420626520657861637420746f2066656500000000600082015250565b6000611452601c83610e51565b915061145d8261141c565b602082019050919050565b6000602082019050818103600083015261148181611445565b9050919050565b60008190508160005260206000209050919050565b60006020601f8301049050919050565b600082821b905092915050565b6000600883026114ea7fffffffffffffffffffffffffffffffffffffffffffffffffffffffffffffffff826114ad565b6114f486836114ad565b95508019841693508086168417925050509392505050565b6000819050919050565b600061153161152c61152784610d07565b61150c565b610d07565b9050919050565b6000819050919050565b61154b83611516565b61155f61155782611538565b8484546114ba565b825550505050565b600090565b611574611567565b61157f818484611542565b505050565b5b818110156115a35761159860008261156c565b600181019050611585565b5050565b601f8211156115e8576115b981611488565b6115c28461149d565b810160208510156115d1578190505b6115e56115dd8561149d565b830182611584565b50505b505050565b600082821c905092915050565b600061160b600019846008026115ed565b1980831691505092915050565b600061162483836115fa565b9150826002028217905092915050565b61163d82610e46565b67ffffffffffffffff81111561165657611655611023565b5b6116608254611313565b61166b8282856115a7565b600060209050601f83116001811461169e576000841561168c578287015190505b6116968582611618565b8655506116fe565b601f1984166116ac86611488565b60005b828110156116d4578489015182556001820191506020850194506020810190506116af565b868310156116f157848901516116ed601f8916826115fa565b8355505b6001600288020188555050505b505050505050565b600081905092915050565b600061171c82610e46565b6117268185611706565b9350611736818560208601610e62565b80840191505092915050565b600061174e8284611711565b915081905092915050565b7f4f776e61626c653a206e6577206f776e657220697320746865207a65726f206160008201527f6464726573730000000000000000000000000000000000000000000000000000602082015250565b60006117b5602683610e51565b91506117c082611759565b604082019050919050565b600060208201905081810360008301526117e4816117a8565b9050919050565b7f4f776e61626c653a2063616c6c6572206973206e6f7420746865206f776e6572600082015250565b6000611821602083610e51565b915061182c826117eb565b602082019050919050565b6000602082019050818103600083015261185081611814565b905091905056fea26469706673582212204c055c6520b037e0aea8fbc83b309b5f256f7e3ded3e6e00f60f99f1da194d2564736f6c63430008110033",
  "linkReferences": {},
  "deployedLinkReferences": {}
}